S025000074726166666963206C696768742070726F6A65637420656779206677642E737265630B
S11300000C942A000C943C000C943C000C943C008E
S11300100C943C000C943C000C943C000C943C006C
S11300200C943C000C943C000C94F9010C942202B6
S11300300C943C000C943C000C943C000C943C004C
S11300400C943C000C943C000C943C000C943C003C
S11300500C943C0011241FBECFE5D8E0DEBFCDBF19
S113006020E0A0E6B0E001C01D92A636B207E1F799
S11300700E9495000C944B020C9400008091610046
S1130080843609F04CC080916000811112C040E0B8
S113009060E00E94500140E061E080E00E94500175
S11300A041E060E081E00E94500141E061E081E0D4
S11300B013C08130D9F440E060E00E94500140E078
S11300C061E081E00E94500141E060E082E00E9432
S11300D0500141E061E082E00E9450011092610011
S11300E0809160008F5F8093600019C08230B9F402
S11300F040E060E00E94500140E061E082E00E9444
S1130100500141E060E080E00E94500141E061E084
S113011080E00E9450011092610010926000809172
S113012061008F5F8093610008950E94D9010E944D
S1130130D50141E060E080E00E94CB0041E060E056
S113014081E00E94CB0041E060E082E00E94CB00AD
S113015041E061E080E00E94CB0041E061E081E0A9
S11301600E94CB0041E061E082E00E94CB0041E0CC
S113017062E080E00E94CB0041E060E080E00E9409
S1130180500141E061E080E00E9450018EE390E084
S11301900E94EC01FFCF883008F081C0613031F15A
S11301A038F0623009F440C0633009F45BC008954C
S11301B0413061F44AB321E030E0B90102C0660F76
S11301C0771F8A95E2F7CB01842B0EC0411167C0DB
S11301D04AB321E030E0B90102C0660F771F8A9567
S11301E0E2F7CB01809584238ABB0895413061F402
S11301F047B321E030E0B90102C0660F771F8A954A
S1130200E2F7CB01842B0EC0411149C047B321E072
S113021030E0B90102C0660F771F8A95E2F7CB017F
S11302208095842387BB0895413061F444B321E071
S113023030E0B90102C0660F771F8A95E2F7CB015F
S1130240842B0EC041112BC044B321E030E0B9012E
S113025002C0660F771F8A95E2F7CB01809584234D
S113026084BB0895413061F441B321E030E0B90129
S113027002C0660F771F8A95E2F7CB01842B0EC06C
S113028041110DC041B321E030E0B90102C0660F55
S1130290771F8A95E2F7CB018095842381BB08956B
S11302A0883008F081C0613031F138F0623009F4EF
S11302B040C0633009F45BC00895413061F44BB32E
S11302C021E030E0B90102C0660F771F8A95E2F79A
S11302D0CB01842B0EC0411167C04BB321E030E049
S11302E0B90102C0660F771F8A95E2F7CB018095AA
S11302F084238BBB0895413061F448B321E030E09E
S1130300B90102C0660F771F8A95E2F7CB01842BEF
S11303100EC0411149C048B321E030E0B90102C028
S1130320660F771F8A95E2F7CB018095842388BBFB
S11303300895413061F445B321E030E0B90102C0D1
S1130340660F771F8A95E2F7CB01842B0EC041110B
S11303502BC045B321E030E0B90102C0660F771F1E
S11303608A95E2F7CB018095842385BB08954130BB
S113037061F442B321E030E0B90102C0660F771F97
S11303808A95E2F7CB01842B0EC041110DC042B314
S113039021E030E0B90102C0660F771F8A95E2F7C9
S11303A0CB018095842382BB08958FB780688FBF6B
S11303B0089583B7877F83BF83B78F7B83BF89B754
S11303C0816089BF83B7816083BF83B78D7F83BF1B
S11303D083B7846083BF0895009751F0209164002F
S11303E030916500232B21F4909365008093640081
S11303F008951F920F920FB60F9211242F933F93DB
S11304004F935F936F937F938F939F93AF93BF9318
S1130410EF93FF93E0916200F0916300309709F04D
S11304200995FF91EF91BF91AF919F918F917F912A
S11304306F915F914F913F912F910F900FBE0F904D
S11304401F9018951F920F920FB60F9211242F939D
S11304503F934F935F936F937F938F939F93AF9348
S1130460BF93EF93FF93E0916400F09165003097A0
S113047009F00995FF91EF91BF91AF919F918F91F1
S11304807F916F915F914F913F912F910F900FBE8C
S10D04900F901F901895F894FFCF09
S9030000FC
