S025000074726166666963206C696768742070726F6A65637420656779206677642E737265630B
S11300000C942A000C9426030C9447000C9447008B
S11300100C9447000C9447000C9447000C94470040
S11300200C9447000C9447000C9475030C949E03A5
S11300300C9447000C9447000C9447000C94470020
S11300400C9447000C9447000C9447000C94470010
S11300500C94470011241FBECFE5D8E0DEBFCDBF0E
S113006010E0A0E6B0E0E2E9F7E002C005900D92EE
S1130070A236B107D9F720E0A2E6B0E001C01D9294
S1130080AE36B207E1F70E9470010C94C7030C94DA
S1130090000080916000813041F460E080E00E94C3
S11300A05C0160E081E00E945C0180916400813029
S11300B041F461E080E00E94630161E081E00E941C
S11300C063018091650090916600813722E0920778
S11300D041F420916300213021F4109267001092C2
S11300E06300813722E09207D9F42091670021113F
S11300F017C01092600060E080E00E94690160E037
S113010081E00E94690181E080936400109266009E
S113011010926500809167008F5F8093670061C0D3
S1130120813722E0920701F5209167002130E1F444
S11301301092640061E080E00E94690161E081E066
S11301400E94690162E080E00E945C0162E081E05B
S11301500E945C0110926600109265008091670015
S11301608F5F809367003DC0813722E09207C9F416
S1130170209167002230A9F462E080E00E946901C6
S113018062E081E00E94690181E080936400109242
S1130190660010926500809167008F5F809367000E
S11301A020C081379240E9F4809167008330C9F41C
S11301B01092640061E080E00E94690161E081E0E6
S11301C00E94690160E080E00E945C0160E081E0DF
S11301D00E945C01109266001092650081E0809399
S11301E0630080916500909166000196909366008B
S11301F08093650080916000813031F080916700C8
S1130200843020F080E0089580E0089581E008952E
S113021080916700833089F08091600081110FC064
S113022082E08093670081E792E090936600809378
S113023065000E94490081E0089580E0089580E00F
S1130240089541E060E080E00E94870141E060E0C1
S113025081E00E94870141E060E082E00E94870122
S11302606FEF81E00E94750140E063E082E00E944C
S113027087010E9453030E944F030E9415038DE7D8
S11302800E946C0341E063E082E00E94100242E6B7
S113029050E063E082E00E94990280916200813024
S11302A009F080E0089589E490E00E946E0388E0FC
S11302B091E00E941F030895982F862F41E0692F33
S11302C00E9410020895982F862F692F0E94D7024A
S11302D00895982F862F40E0692F0E9410020895F8
S11302E00E9421010E945301FFCF6F3F79F48130B6
S11302F041F028F0823039F0833039F008956ABB38
S1130300089567BB089564BB089561BB0895883060
S113031008F085C0613039F138F0623009F442C028
S1130320633009F45EC00895413069F44AB321E0B2
S113033030E0B90102C0660F771F8A95E2F7CB015E
S1130340842B8ABB089541116AC04AB321E030E08E
S1130350B90102C0660F771F8A95E2F7CB01809539
S113036084238ABB0895413069F447B321E030E027
S1130370B90102C0660F771F8A95E2F7CB01842B7F
S113038087BB089541114BC047B321E030E0B90168
S113039002C0660F771F8A95E2F7CB01809584230C
S11303A087BB0895413069F444B321E030E0B901DA
S11303B002C0660F771F8A95E2F7CB01842B84BBBA
S11303C0089541112CC044B321E030E0B90102C0CA
S11303D0660F771F8A95E2F7CB018095842384BB4F
S11303E00895413069F441B321E030E0B90102C01D
S11303F0660F771F8A95E2F7CB01842B81BB0895A2
S113040041110DC041B321E030E0B90102C0660FD3
S1130410771F8A95E2F7CB018095842381BB0895E9
S1130420883008F085C0613039F138F0623009F461
S113043042C0633009F45EC00895413069F44BB39F
S113044021E030E0B90102C0660F771F8A95E2F718
S1130450CB01842B8BBB089541116AC04BB321E0BF
S113046030E0B90102C0660F771F8A95E2F7CB012D
S1130470809584238BBB0895413069F448B321E00F
S113048030E0B90102C0660F771F8A95E2F7CB010D
S1130490842B88BB089541114BC048B321E030E060
S11304A0B90102C0660F771F8A95E2F7CB018095E8
S11304B0842388BB0895413069F445B321E030E0DA
S11304C0B90102C0660F771F8A95E2F7CB01842B2E
S11304D085BB089541112CC045B321E030E0B9013A
S11304E002C0660F771F8A95E2F7CB0180958423BB
S11304F085BB0895413069F442B321E030E0B9018D
S113050002C0660F771F8A95E2F7CB01842B82BB6A
S1130510089541110DC042B321E030E0B90102C099
S1130520660F771F8A95E2F7CB018095842382BBFF
S113053008958830D8F5613099F028F06230E9F0F8
S1130540633041F1089529B330E0B90102C07595D3
S113055067958A95E2F7CB018170FA01808308954B
S113056026B330E0B90102C0759567958A95E2F724
S1130570CB018170FA018083089523B330E0B9017F
S113058002C0759567958A95E2F7CB018170FA01EF
S11305908083089520B330E0B90102C07595679552
S11305A08A95E2F7CB018170FA018083089588303F
S11305B0D8F5613099F028F06230E9F0633041F108
S11305C008954BB321E030E0B90102C0660F771FF4
S11305D08A95E2F7CB0184278BBB089548B321E0C9
S11305E030E0B90102C0660F771F8A95E2F7CB01AC
S11305F0842788BB089545B321E030E0B90102C0E7
S1130600660F771F8A95E2F7CB01842785BB08958F
S113061042B321E030E0B90102C0660F771F8A952A
S1130620E2F7CB01842782BB089585B7816085BF3B
S113063085B7826085BF8BB780648BBF08950097B0
S113064021F0909369008093680008951F920F929F
S11306500FB60F9211242F933F934F935F936F9391
S11306607F938F939F93AF93BF93EF93FF93E09107
S11306706800F0916900309709F00995FF91EF91B6
S1130680BF91AF919F918F917F916F915F914F91A6
S11306903F912F910F900FBE0F901F9018958FB719
S11306A080688FBF089583B7886083BF83B78F7BCB
S11306B083BF83B7806183BF83B7806283BF89B7F9
S11306C0826089BF83B7816083BF83B78D7F83BF17
S11306D083B7846083BF08958CBF0895009721F089
S11306E090936B0080936A0008951F920F920FB647
S11306F00F9211242F933F934F935F936F937F93A4
S11307008F939F93AF93BF93EF93FF93E0916A000E
S1130710F0916B00309709F00995FF91EF91BF912B
S1130720AF919F918F917F916F915F914F913F9185
S11307302F910F900FBE0F901F9018951F920F923C
S11307400FB60F9211242F933F934F935F936F93A0
S11307507F938F939F93AF93BF93EF93FF93E09116
S11307606C00F0916D00309709F00995FF91EF91BD
S1130770BF91AF919F918F917F916F915F914F91B5
S11307803F912F910F900FBE0F901F901895F894E2
S1050790FFCF95
S1050792010060
S9030000FC
